:100000000C94E8070C9405080C9405080C943634FD
:100010000C9405080C9405080C9405080C9405082C
:100020000C9405080C9405080C9478310C9450320B
:100030000C94C01B0C9405080C9405080C9405083E
:100040000C9405080C9405080C9405080C940508FC
:100050000C9405080C9454310C9405080C94050874
:100060000C9405080C9405080C9405080C940508DC
:100070000C9405080C9405080C9405080C940508CC
:100080000C9405080C9405080C9405080C940508BC
:100090000C9405080C9405080C9405080C940508AC
:1000A0000C9405080C9405080C94050805010980BA
:1000B000A101850319012AB700150126B700950192
:1000C00075108100C0050C0901A101850419012AE0
:1000D000A002150126A002950175108100C00660DE
:1000E000FF0961A1010962150026FF00952075082E
:1000F00081020963150026FF00952075089102C052
:1001000005010906A101050719E029E715002501E8
:10011000950875018102950175088101050719008F
:1001200029FF150026FF00950675088100050819AE
:1001300001290515002501950575019102950175A7
:10014000039101C000AF00AE09025B00030100A0F3
:10015000FA09040000010301010009211101000155
:10016000224400070581030800010904010002037D
:10017000000000092111010001222200070582036D
:100180002000010705030320000109040200010308
:10019000000000092111010001223200070584033B
:1001A000200001120100020000000832FC87020159
:1001B00000010200010C0353006F0066006C006533
:1001C0000000001A034A006F0073006500660041DA
:1001D00000640061006D00630069006B00000004B2
:1001E00003090435001E001F002000210022002901
:1001F0000014001A000800150017002B0004001658
:1002000000070009000A00E1001D001B000600199C
:10021000000500E300E200E00021522C00A80035B8
:1002200000270026002500240023002A00130012C6
:10023000000C0018001C00340033000F000E000DED
:10024000000B00E50038003700360010001100E711
:1002500000E600E40022522800AE0001003A003B14
:10026000003C003D003E0035001E001F0020002124
:1002700000220001001E021F0220022102220201B0
:10028000002E002D002E022F02300201000100017D
:100290000001000100010044004300420041004011
:1002A000003F0045002700260025002400230031E0
:1002B0000227022602250224022302010031003314
:1002C00002330030002F0001000100010001000195
:1002D0000001000100010001000100010001000116
:1002E00000490046006500000000000100E200E057
:1002F00000E1000000390001007A007B007C007DF5
:1003000000000001000100010001000100010001E6
:1003100000010001000100010001002A00457E42A9
:100320007E5200417E4B002A004C004F005100508D
:10033000004E0001000000447E0000437E000001EA
:1003400000010001000100010001000000000000A8
:1003500000000000000000007C0000000000000021
:10036000000000000000001D700000000000000000
:10037000000000000000000000000001000100017A
:10038000000100010000000000000000000000006B
:10039000000000000000000000000000000000005D
:1003A000000000A900A800AA00000000000000ABA7
:1003B00000AE00AC000000010001000100010001DE
:1003C000000000070F180F4E004B00010001000154
:1003D000000100237824782578267827782878214A
:1003E0007822788080808080E0E0E0E0F0FCFCFC17
:1003F000FCFFFFFFFFFFFF7F7F7F7F7F7F7F7F7F90
:100400007F7F7F7FFFFFFFFFFFFFFCFCFCFCFCFC0E
:10041000FCFCFCFCFCFCFCFCFCFCFCFCE0E0E0E08C
:10042000E0E0E0E0E0E0E0E0E0E08080808080800C
:1004300080808080808080808080808080808080BC
:1004400080800000000000000000000000000000AC
:10045000000000000000000000000000000000009C
:100460000000000303030303030303030303030365
:10047000030F0A0A0A0AFF0E0E0E0EFEFEFEFEFE15
:100480000E0E0E0EFF0A0A0A0A0400000001030302
:1004900003030F0F0F0F0F3F3F3F3F3F3F3F3F3FD4
:1004A0003F3F3F3F3F3F3F3F3F3F3F3F3F3F3F3F5C
:1004B0003F3F3F3F3F3F3F3F3F3F3F3F3F3F3F3F4C
:1004C0003F3F3E3E3E3E3E3E3E3E3E3E3E3E3E3E4A
:1004D0003E3E3E3E3E38383838383838383838387E
:1004E00038383880C0C0C0C0C0C0C0C0C0C0C0C0E4
:1004F000C0E050505050FFE06060607F7F7F7F7FA2
:1005000060606060DF505050502000000080C0C02C
:10051000C0C0F0F0F0F0F0FCFCFCFCFCFCFCFCFCCF
:10052000FCFCFCFCFCFCFCFCFCFCFCFCFCFCFCFC0B
:10053000FCFCFCFCFCFCFCFCFCFCFCFCFCFCFCFCFB
:10054000FCFC7C7C7C7C7C7C7C7C7C7C7C7C7C7CEB
:100550007C7C7C7C7C1C1C1C1C1C1C1C1C1C1C1CFB
:100560001C1C1C01010101010F0F0F0F0F3F3F3F2A
:100570003FFFFEFEFEFEFFFFFEFEFEFEFEFEFEFE57
:10058000FEFEFEFEFFFEFEFEFEFE3E3E3E3F3F3F07
:100590003F3F3F3F3F3F3F3F3F3F3F3F0F0F0F0F2B
:1005A0000F0F0F0F0F0F0F0F0F0F030101010101AD
:1005B000010101010101010101010101010101012B
:1005C0000101000000000000000000000000000029
:1005D000000000000000000000000000000000001B
:1005E000000000BC7C7EFEFEFEFEFEFEFEFEFEFE69
:1005F000FEFEFEFEFEFEFEFEFEFEFEFEFEFE7E7C1D
:10060000BCBCD809091312161D1D03BBBBABABAB99
:10061000ABABABABABABABBBBB031D1D1612130936
:10062000090808FCFCFCFCFCFEFEFFFFFFFFFFFFCF
:10063000FFFFFFFFFFFFFFFFFFFFFEFEFCFCFCFCD8
:10064000FC3CCCFCF38F7FFFFFFFFFFFFFFFFFFFB2
:10065000FFFFFFFFFFFFFFFFFFFFFFFFFF7F8FF3A6
:10066000FCFFFFFFFFFFFEF9E71FBFBFBF7F7F7FDC
:100670007F7F7F7F7F7F7FBFBFBF1FE7F9FEFFFFC9
:10068000FFFFFFFFFFFFFF07F9FEFFFFFFFFFFFF79
:10069000FFFFFFFFFFFFFFFFFFFFFEF907FFFFFF69
:1006A000FF7F7F7C7C78B9B8B1B333E3E7E7E7E756
:1006B000E7E7E7E7E7E7E7E7E333B3B1B8B9787C23
:1006C0007C7E3E671FFBD9C9496D7FF8C73FFFFF9E
:1006D000FFFFFFFFFFFF3FC7F87F6D49C9D9FB1F31
:1006E00067391E00000003020202030505040F0F14
:1006F0000F0F0F0F0F0F0405050302020203000086
:100700000000000A0A004350534C4B00556E6465CC
:10071000660041646A0A004C6F7765720052616935
:10072000736500426173650A00556E646566005129
:100730007772740007087F0807003E5B4F5B3E003E
:100740003E6B4F6B3E001C3E7C3E1C00183C7E3CCA
:1007500018001C577D571C001C5E7F5E1C00001893
:100760003C180000FFE7C3E7FF0000182418000052
:10077000FFE7DBE7FF0030483A060E00262979291B
:100780002600407F05050700407F05253F005A3CB5
:10079000E73C5A007F3E1C1C0800081C1C3E7F00E2
:1007A00014227F2214005F5F005F5F0006097F0153
:1007B0007F00006689956A0060606060600094A2B6
:1007C000FFA2940008047E04080010207E20100080
:1007D00008082A1C0800081C2A0808001E1010100F
:1007E00010000C1E0C1E0C0030383E383000060E77
:1007F0003E0E060000000000000000005F00000048
:10080000000700070000147F147F1400242A7F2AA9
:100810001200231308646200364956205000000875
:1008200007030000001C224100000041221C0000C0
:100830002A1C7F1C2A0008083E080800008070302F
:100840000000080808080800000060600000201090
:10085000080402003E5149453E0000427F4000002E
:100860007249494946002141494D33001814127F0D
:1008700010002745454539003C4A4949310041218E
:1008800011090700364949493600464949291E00E1
:100890000000140000000040340000000008142292
:1008A0004100141414141400004122140800020121
:1008B000590906003E415D594E007C1211127C0020
:1008C0007F49494936003E41414122007F41414133
:1008D0003E007F49494941007F09090901003E4125
:1008E000415173007F0808087F0000417F410000EC
:1008F0002040413F01007F08142241007F404040DA
:1009000040007F021C027F007F0408107F003E41F0
:1009100041413E007F09090906003E4151215E0028
:100920007F091929460026494949320003017F0100
:1009300003003F4040403F001F2040201F003F4039
:1009400038403F0063140814630003047804030074
:100950006159494D4300007F4141410002040810A4
:100960002000004141417F00040201020400404098
:100970004040400000030708000020545478400025
:100980007F284444380038444444280038444428EC
:100990007F0038545454180000087E09020018A43F
:1009A000A49C78007F080404780000447D40000087
:1009B0002040403D00007F102844000000417F405F
:1009C00000007C04780478007C0804047800384433
:1009D00044443800FC182424180018242418FC006F
:1009E0007C080404080048545454240004043F4480
:1009F00024003C4040207C001C2040201C003C4047
:100A000030403C004428102844004C9090907C00DA
:100A10004464544C44000008364100000000770054
:100A200000000041360800000201020402003C26DA
:100A300023263C00000000000000404040F0F8F891
:100A4000FF38FFF8F83FF8F8FF38FFF8F8F04040BB
:100A50004000000000000080C0C0C0800000C0C096
:100A60008000000080C0C000C0C0000080C0C00086
:100A700000000000C0C0C0C0C000C0C00000000036
:100A80000000000000000000000000000000000066
:100A90000000000000000000000000000000000056
:100AA0000000000000000000000000000000000046
:100AB000000000C0F0F8FC3E1E06010000007F416F
:100AC00041417F007F4141417F000080C0E07E5B6B
:100AD0004F5BFEC00000C000DCD7DEDEDED7DC00EE
:100AE000C000000000000000000000000000000046
:100AF00000000000000000000000494949FFFFFF1E
:100B0000FFE0DFBFBF00BFBFDFE0FFFFFFFF4949DE
:100B10004900000000001F3F6060E0BF1F007F7FB2
:100B2000071E381E077F7F007F7F0E1F3B7160000E
:100B3000000000007F7F0C0C0C007E7E007F7E0397
:100B400003007F7E03037E7E03037F7E000F3E70E3
:100B50003C063C703E0F00327B49493F7E007F7E61
:100B60000303001E3F69696F2600000000000000BB
:100B7000000000030F1F3F3C7870600000007F41C1
:100B800041417F007F4141417F00307B7F783020B1
:100B90002030787F3B0003000F7F0F0F0F7F0F0087
:100BA0000300000000000000000000000000000042
:100BB00000000000000000000000010101070F0F0D
:100BC0007F0F7F0F0F7E0F0F7F0F7F0F0F0701012A
:100BD0000100000000000000000000010100000012
:100BE0000000000000000000000000000000000005
:100BF00000000000000000000000000000000000F5
:100C000000000000000000000000000000000000E4
:100C100000000000000000000000000000000000D4
:100C200000000000000000000000000000000000C4
:100C300000000000000000000000000000000000B4
:100C400000000000000000000000000000000000A4
:100C50000000000000000000000000000000000094
:100C60000000000000000000000000000000000084
:100C7000000000002223252628292A2C2D2F30327F
:100C8000333536383A3B3D3E4042434547494A4C6E
:100C90004E5051535557595A5C5E6062646668699C
:100CA0006B6D6F71737577797B7D7F8183858789A4
:100CB0008A8C8E90929496989A9C9E9FA1A3A5A7A9
:100CC000A8AAACAEAFB1B3B4B6B8B9BBBCBEBFC1D5
:100CD000C2C3C5C6C7C9CACBCCCDCED0D1D2D2D360
:100CE000D4D5D6D7D7D8D9D9DADADBDBDBDCDCDC74
:100CF000DCDCDDDDDDDDDCDCDCDCDCDBDBDBDADA37
:100D0000D9D9D8D7D7D6D5D4D3D2D2D1D0CECDCCAD
:100D1000CBCAC9C7C6C5C3C2C1BFBEBCBBB9B8B6C2
:100D2000B4B3B1AFAEACAAA8A7A5A3A19F9E9C9A4D
:100D300098969492908E8C8A89878583817F7D7B1B
:100D400079777573716F6D6B6968666462605E5CFC
:100D50005A5957555351504E4C4A494745434240C2
:100D60003E3D3B3A3836353332302F2D2C2A292858
:100D700026252322000101010101010101010202D6
:100D80000202020202020203030303030303030439
:100D90000404040404040505050505060606060604
:100DA000070707070708080808090909090A0A0ABE
:100DB0000B0B0B0C0C0C0D0D0D0E0E0E0F0F0F1060
:100DC00010111111121213131414151516161717EA
:100DD000181819191A1A1B1B1C1D1D1E1E1F202056
:100DE000212222232424252626272829292A2B2CA0
:100DF0002D2D2E2F30313232333435363738393AC3
:100E00003B3C3D3E3F404142434445464748494ABA
:100E10004C4D4E4F50515354555658595A5B5D5E88
:100E20005F616264656668696B6C6D6F7072737523
:100E300077787A7B7D7E8082838587888A8C8E8F87
:100E400091939596989A9C9EA0A2A3A5A7A9ABADB5
:100E5000AFB1B3B5B7BABCBEC0C2C4C6C9CBCDCFA3
:100E6000D1D4D6D8DBDDDFE2E4E7E9EBEEF0F3F551
:100E7000F8FAFDFF00DA0281FFD9F1DB20A4A62EEB
:100E8000AF00A0C0D30000A1C8D30000AED580A899
:100E90001F408D1420007F3F1F6432146432147889
:100EA0003C1E1E140A0500000000000000000000A7
:100EB0000000000000000000000000000000000032
:100EC000000000000000000000007E0F00D4FFFFC3
:100ED000FFC70000007800000000000000002A2B7F
:100EE00028000000000000000000000000000000DA
:100EF0000029000000002C1E342021222434262743
:100F0000252E362D3738271E1F2021222324252663
:100F10003333362E37381F0405060708090A0B0C31
:100F20000D0E0F101112131415161718191A1B1C79
:100F30001D2F3130232D350405060708090A0B0C37
:100F40000D0E0F101112131415161718191A1B1C59
:100F50001D2F3130354C0100000501050205030548
:100F6000040505050006010602060306040605063B
:100F70000007010702070307040705070008010827
:100F80000208030804080508000901090209030909
:100F90000409050900000100020003000400050027
:100FA0000001010102010301040105010002010227
:100FB0000202030204020502000301030203030309
:100FC00004030503000401040204030404040504EB
:100FD00011241FBECFEFDAE0DEBFCDBF11E0A0E0ED
:100FE000B1E0E6E0FEE602C005900D92A03DB1073B
:100FF000D9F726E0A0EDB1E001C01D92A230B20702
:10100000E1F70E94D22A0C9491360C940000282F0C
:10101000982F92959F7084E0911102C080E0922FEA
:10102000292F26952695211511F08E5F922F9695E2
:1010300091118F5F08958093AF050895982F967052
:10104000963021F488608093B0050895877FFBCFA8
:1010500021E030E001C0220F8A95EAF78091B005C7
:10106000822B0E941E08089521E030E0A90102C0F1
:10107000440F551F8A95E2F7CA0180959091B005FB
:1010800089230E941E0808959B01677091E001C0AA
:10109000990F6A95EAF763E0369527956A95E1F727
:1010A000B901660F771F260F371FFA01E20FF31FF2
:1010B00040E050E0682F70E08191DF0111979B01C3
:1010C000042E02C0369527950A94E2F721702195E7
:1010D0002827292328272C934F5F5F4F4330510542
:1010E00059F708959C01A82FA77083E0369527959E
:1010F0008A95E1F7C901880F991F820F931FFB01A1
:10110000E80FF91F40E050E080E0219130E00A2E26
:1011100002C0369527950A94E2F721703327042EF2
:1011200001C0220F0A94EAF7822B4F5F5F4F4330D2
:10113000510559F70895282F862F9A3070F42630DC
:1011400058F4622F70E026E0929F600D711D11240B
:1011500047E855E00E94440808959C5F9230E0F70C
:10116000622F70E044E855E0F5CF292F9A3068F4FB
:10117000863090F490E067E875E036E0239F800DBC
:10118000911D11240E94720808952C5F223020F4D2
:1011900064E875E090E0F6CF80E008959091B005A6
:1011A00021E030E0F90101C0EE0F8A95EAF7D9019C
:1011B00002C0AA0FBB1F6A95E2F7EA2B01C0220FFB
:1011C0004A95EAF7892F8E23E81305C0892F822BD1
:1011D0000E941E0808952095822F8923F9CF8091BF
:1011E000C2059091C105981301C008958F5F877063
:1011F000FACF9091B205809589238093B205282F6C
:10120000277021110DC0891759F09091B50592FFF3
:1012100007C08695869586950E9434081092B2057F
:101220000895982F90958091AC0589238093AC0503
:101230000895803E9105D9F1C8F48133910509F4F0
:1012400082C048F48932910509F472C08A3291054E
:1012500009F480C0089589339105E9F08238910539
:10126000D1F08533910509F45EC00895843E91055F
:10127000D9F148F4823E910539F1833E910549F157
:1012800081EE90E00895863E9105C9F1873E910573
:1012900009F43EC008952091B4052370211164C063
:1012A0002091B50523FF14C089E290E008952091B4
:1012B000B40520FD45C03091B50530FF09C024FDBF
:1012C00024C083EE90E008952091B40522FDF7CF6D
:1012D00008952091B40522FD44C03091B50530FD3C
:1012E00043C024FFF5CF11C02091B50521FFF0CFF9
:1012F0008091B40584FD09C087EE90E008952091A7
:10130000B40523FFE5CF24FFF7CF80E090E00895F8
:101310002091B40523FD2BC03091B50531FFE1CFFD
:1013200084EE90E008952091B40525FFD1CFBCCF85
:101330002091B40525FD1EC02091B50523FFC8CF1F
:1013400089E390E008952091B40526FFC1CF8AE299
:1013500090E008952091B40526FFBACF81E390E094
:10136000089582EE90E0089580EE90E0089586EE74
:1013700090E0089585E390E008959091B40592FF80
:1013800010C041E0282F2471243009F040E031E002
:10139000282F2871283009F030E0431711F02CE095
:1013A000822793FF10C041E0282F2471243109F0D7
:1013B00040E031E0282F2871283109F030E0431750
:1013C00011F02CE082273091B50530FF10C051E0BC
:1013D000282F2171213009F050E041E0282F287199
:1013E000283009F040E0541711F029E0822731FF3E
:1013F00010C041E0282F2171213109F040E031E097
:10140000282F2871283109F030E0431711F029E026
:10141000822794FD877E08951F93CF93DF930E94C8
:101420001909EC01811522E5920708F05DC08115CC
:1014300040E5940708F0EAC0803E910528F58D3C10
:10144000910508F0A8C0883A910578F4853A91058D
:1014500008F09EC08130910509F441C00497813A9B
:101460009105E8F1C0E0D0E03AC0885A91094B9765
:10147000C8F7C85AD0E0CC0FDD1FC656DE4F099022
:10148000D881C02DD4642BC0811550E49507F8F4A1
:10149000C11580E2D80708F0D2C0C83ED105F8F0E7
:1014A000CE019A9581159F41E8F68D2F0E94BD09C6
:1014B000182FCE0199270E941909212F30E0322FD1
:1014C0002227E901CC27DF71C82BD92B08C0992727
:1014D0000E941909CC27DF70C82BD92BD06ACE0106
:1014E000DF91CF911F910895803A42E5940778F5F6
:1014F0008038924508F07CC0C03682E5D80788F471
:10150000C03422E5D20708F05DC0C03242E5D407FE
:1015100008F443C0CF71D0E0DC2FCC27C16FD06A74
:10152000DECF8C2F86958695877050E2859FC0010F
:101530001124C37021E030E0A90102C0440F551FFF
:10154000CA95E2F7EA01C82BD92BDA68C8CF803EEA
:1015500052E5950788F4C03C82E5D80708F04FC0F3
:101560008C2F8F710E94BD09C82FD0E0DC2FCC27B3
:10157000CC27DF71D062B3CF96558115914008F02A
:1015800071CFCE0199270E941909EC01D066A7CF2F
:10159000A497D064A4CFD065A2CF8C2F86958695D2
:1015A00040E2849FC0011124C37021E030E0A90112
:1015B00002C0440F551FCA95E2F7EA01C82BD92B88
:1015C000DD688DCF8C2F86958695877050E2859F3C
:1015D000C0011124C37021E030E0A90102C0440F12
:1015E000551FCA95E2F7EA01C82BD92BDC6877CFE3
:1015F000CF71D0E0DC2FCC27C46FD06A70CFDC2F46
:10160000CC27CC27DF71C06FD06A69CF8F710E9461
:10161000BD0965E0D695C7956A95E1F7CF70D0E032
:10162000DC2FCC27282F30E084FF05C054E0220FA8
:10163000331F5A95E1F7C22BD32BD06950CF8D2F92
:101640008F710E94BD09182FCE0199270E94190998
:10165000212F30E0322F222722273F71282B392BD0
:10166000E90188CF80E00895F894E82FE295EF70C3
:10167000F0E041A18F7021E030E0B90102C0660FB7
:10168000771F8A95E2F7CB01962F9095942391A32B
:1016900092A1892B82A3789408950895A0E0B0E0E8
:1016A000E4E5FBE00C946E358901E42FF0E0EC58A2
:1016B000F24F61110FC0E491BE2E2E2FD80111966A
:1016C0002C931197EC931296BC92CDB7DEB7E9E05C
:1016D0000C948A35C82FD0E0E62EF12C3491232FBC
:1016E00086E08C9F60018D9FD00C1124EFEFF0E01D
:1016F000C601BF010E945135CC0FDD1F45E5469F55
:10170000C001479F900D1124C81BD90BAC2FAA0F05
:10171000AC0FAF014E195F09349FC001359F900D8A
:101720001124B92EAE9DE001AF9DD00D1124CD2F17
:10173000DD27AF014C1B5D0BEA013C9FA0013D9FE3
:10174000500D1124EF01CA1BD109DE01AE9DE0014D
:10175000AF9DD00DBE9DD00D1124CD2FDD27EC1BEC
:10176000FD0B3E9FD0013F9FB00D1124EB2F633046
:101770007105D1F0DCEFCD16D3E0DD0658F4613011
:101780007105B1F06230710509F098CFE32F292F70
:10179000BB2E94CF6430710571F06630710509F489
:1017A0008DCFE92FB52E8ACF292FB32EE52F86CFE7
:1017B000E32F252F83CFE92FB32E2B2F7FCF8091BF
:1017C000A405843060F4837084608093A4058091C4
:1017D000A705893718F088E78093A7050895843610
:1017E000B0F383708066F1CFE1EAF5E01182828187
:1017F000846082830895FA01811511F00995089596
:10180000FB01FCCFEF92FF920F931F93CF93DF93D7
:10181000B82FA92F9B0180910A0390910B038C5044
:101820009340AC01460F571F4130524020F020E05A
:1018300032E0281B390B4091080350910903EB2F2C
:10184000FA2FDC01A45FBC4F280F391FEE24E3946C
:10185000F12C8217930748F0509309034093080333
:10186000CDB7DEB7E6E00C948D3564917D917617A7
:10187000A1F08D0101501109E8016883BC01C5E0A8
:1018800076956795CA95E1F7E70102C0CC0FDD1F99
:101890006A95E2F7BE014C2B572B01963196D9CFB2
:1018A000FC01680F791F8FEF41E39191892728E0B0
:1018B00030E0982F990F87FF09C0892F8427215086
:1018C0003040B9F7E617F70781F70895892FF7CF6A
:1018D00080917605811559F0E0917A05F0917B05AC
:1018E000309729F00190F081E02D0995089580E06E
:1018F0000895A3E0B0E0EFE7FCE00C9475359C019F
:101900008091FE019091FF0182179307A1F030931F
:10191000FF012093FE01E0917A05F0917B0530975D
:1019200051F083E089833B832A830084F185E02D95
:10193000CE01019609952396E2E00C949135A3E03F
:10194000B0E0E5EAFCE00C9475359C018091FC0167
:101950009091FD0182179307A1F03093FD01209330
:10196000FC01E0917A05F0917B05309751F084E01D
:1019700089833B832A830084F185E02DCE01019683
:1019800009952396E2E00C9491359C01FC01329676
:101990008FEF90E04191461751F08F3F19F44111BC
:1019A00001C0892F9F5F9630A9F78F3F09F40895F2
:1019B000280F311D87FD3A95F901628308959C0136
:1019C000FC013296285F3F4F8191861303C0DF01EF
:1019D00011971C92E217F307B9F708952FB7F894FF
:1019E00060915705709158058091590590915A055D
:1019F0002FBF08950F931F9380917605811529F0CD
:101A00000E94EE0C1F910F9108950E94EE0C009120
:101A10007205109173052091740530917505600F62
:101A2000711F821F931FEECF0E94FA0C089587E763
:101A300097E7909301088093000888E19AE00FB639
:101A4000F894A895809360000FBE90936000FFCF3C
:101A50008091FB01089508950895FC019B018091F8
:101A6000F1019091F2018617970740F0672B29F456
:101A70008091E8008E778093E800C90140E00097EC
:101A800041F4411106C08091E80082FF2FC080E040
:101A9000089520913D052115A9F12530A9F1209146
:101AA000E80023FD2DC02091E80022FDECCF20911D
:101AB000E80020FFE4CF3091F3002091F20000977E
:101AC00019F02830310558F041E02830310509F08F
:101AD00040E02091E8002E772093E800D0CF41919C
:101AE0004093F10001972F5F3F4FE9CF80913D0573
:101AF000811541F0853041F08091E80083FFC3CF2C
:101B000081E0089582E0089583E008958091EB01DB
:101B100087FF13C08091E80082FF06C08091E80033
:101B20008B778093E800089580913D058111F2CF75
:101B3000089580913D058115D9F38091E80080FFDB
:101B4000F8CF8091E8008E77ECCF2091E4003091BF
:101B5000E50095E6A9018091EC008170811531F0D6
:101B60008091E80080FF06C080E008952091E800A1
:101B700022FD1AC080913D05811589F0853089F0DC
:101B80008091EB0085FD0FC02091E4003091E500CD
:101B90004217530701F39A95E9F684E0089582E02D
:101BA000089583E0089581E00895E8EDF0E08081F4
:101BB0008E7F80831092E2001092DA001092E10092
:101BC000A0EEB0E08C9181608C9380818F778083D0
:101BD00019BCA7EDB0E08C918E7F8C9380818F7EB5
:101BE00080831092EA010895982F9093E900242FA2
:101BF000762F50E0981731F07091EC002091ED00B5
:101C00005091F00021FD06C09F5F973071F78093DF
:101C1000E90008953091EB003E7F3093EB00309166
:101C2000ED003D7F3093ED003091EB00316030935B
:101C3000EB007093EC002093ED005093F0002091A6
:101C4000EE0027FDE1CF0895A0E0B0E0EAE2FEE07B
:101C50000C946F35C8EDD0E088818F7E8883E7EDE6
:101C6000F0E080818160808384E082BF81E08093A6
:101C7000EA0188818E7F888302EE10E0F8011082ED
:101C80001092DA0081EEC82ED12CF60110828881E4
:101C90008F77888388818068888388818F7D888317
:101CA00019BC10923D051092E9011092170510928F
:101CB000E80190EEE92EF12CF70180818B7F808383
:101CC00088818160888342E060E080E00E94F40DBA
:101CD000F60180818E7F8083F8018081816080831E
:101CE000808188608083F70180818E7F80838881F6
:101CF00080618883CDB7DEB7E8E00C948B35E09146
:101D0000C2059091C10527E0E91302C080E0089563
:101D1000AE2FB0E02E9FF0011124ED53FA4F318128
:101D2000361306C03081381303C03581341304C024
:101D3000FD013196E770E8CF81E0089540910C01F4
:101D40008091A40580FF24C020910B0130E0C901DF
:101D5000880F991F820F931F865D9D4F539A6BB119
:101D6000677F7BB17860EFB7F89450E09A01220F5B
:101D7000331F240F351F280F391F28173907E9F49F
:101D8000EFBF8FE594E00197F1F700C000000895E0
:101D900080910D0190910E01282F30E0F901EE0F96
:101DA000FF1FE20FF31FE65DFD4F891768F61182F2
:101DB000108212828F5F3396F8CFDC014D91CD01F6
:101DC00058E07BB9000000C047FF6BB9440F00002A
:101DD00000C000C000C06BB900C05A9591F7CDCFCC
:101DE0000F931F93CF93DF93EC0100E010E09091ED
:101DF0000F01091711056CF00E949E0E8C8190E076
:101E00000196817099278C83DF91CF911F910F915B
:101E1000089580910D01A801480F511D9A01220FCC
:101E2000331F240F351F265D3D4F4C816091A60561
:101E30008091A50596950917110564F4411561F087
:101E40004091A705493708F048E70E944E0B0F5F05
:101E50001F4FCDCF4115A1F340E0F7CFEF92FF9296
:101E60001F93CF93DF93EC0110E0EE24EA94F12C62
:101E700060910F01161770F00E949E0E9A818C815E
:101E800090FF28C08F5F8C83DF91CF911F91FF90CF
:101E9000EF90089580910D01810F9927991F9C0162
:101EA000220F331F280F391F265D3D4F4091A70594
:101EB000493708F048E770E0C7010E94B635962F11
:101EC0008C816091A605199F800D11240E944E0BF4
:101ED0001F5FCECF8150D7CFA0E0B0E0E2E7FFE0B8
:101EE0000C946C35EC018A81BB24B39480FF02C052
:101EF000BB24BA948C81A0900F01811109C091E09C
:101F0000B91202C08FEF8A0D8093290281E08C8381
:101F1000E12CF12CEA14B8F00E949E0E9091290257
:101F2000E1E0BE1255C080910F018150911519F06A
:101F30008FEF890F91E0809329029C83CDB7DEB7A4
:101F4000EBE00C94883580910D018E0D9F2D911D35
:101F50008C01000F111F080F191F065D1D4FF8019E
:101F600011821082128234E0C32ED12C912C8091E8
:101F70002902890D873444F166E40E94A835892F2F
:101F8000082E001C00088E150F04A9F48091A705E7
:101F90008C9DA0018D9D500D11245595479555950B
:101FA0004795493708F048E798016091A605809168
:101FB000A5050E944E0B9B0CF1E0CF1AD108B9F693
:101FC0008FEFE81AF80AA6CF87FFDACF8A0DD8CFAD
:101FD000892F90E0019660910F0170E00E94B63564
:101FE000982FA9CF0F931F93CF93DF93EC018C8190
:101FF000811109C081E08C831092280292E09093B5
:1020000009018093080110910D0120910E01812F8B
:1020100090E0FC01EE0FFF1FE80FF91FE65DFD4F9A
:10202000821750F100E060910F01061758F10E94ED
:102030009E0E8091080190912802980F909328029B
:1020400020910901280F20930901121654F42091C0
:102050000F012150330B092E001C000892170306B4
:1020600034F0819580930801813009F41C82DF915E
:10207000CF911F910F9108951182108212828F5F6C
:102080003396CECF202F30E070E0C9010E94B635E4
:10209000810F90E040912802FC01EE0FFF1FE80F36
:1020A000F91F042E001C000824173005C4F04091CD
:1020B0000901042E001C00084217030684F09F014A
:1020C000265D3D4F4091A705493708F048E76091EC
:1020D000A6058091A5050E944E0B0F5FA4CFE65D7B
:1020E000FD4F118210821282F8CFE4EAF5E0808180
:1020F0008E7F80830E94F40BE1EAF5E082818160AB
:1021000082830E949E0E08959091A40590FF11C0B5
:1021100090910D0150910E01292F30E0F901EE0F41
:10212000FF1FE20FF31FE65DFD4F951718F00E94A9
:102130009E0E08958183608342839F5F3396F5CF1F
:10214000A3E0B0E0E6EAF0E10C9475359091A405C7
:1021500090FF0DC0493708F048E79E012F5F3F4FC1
:102160000E944E0B4B8169818A810E9484102396C4
:10217000E2E00C949135CF93DF93EC01EC81F0E039
:10218000EC58F34F4491E4EAF5E0628181810E94CA
:10219000A0108C818F5F8C83DF91CF910895CF93B6
:1021A000DF93EC01E4EAF5E0438162818C810E94D7
:1021B000A0108C818F5F8C83DF91CF9108950F9356
:1021C0001F93CF93DF938B01EA0190913D059430EB
:1021D00059F58093E9008FEF9091E80095FD06C0D6
:1021E00095ED9A95F1F700008A95B1F78091E80096
:1021F00085FF1AC00E94A50D811111C08091E800D1
:1022000085FD06C08091E8008E778093E800F2CFCC
:10221000F80181918F018093F100219779F78091E6
:10222000E8008E778093E800DF91CF911F910F91A6
:102230000895CF93DF93D82FC92F48E050E0682F3F
:10224000792F81E00E94DF1088E0ED2FFC2FA3EFB3
:10225000B1E001900D928A95E1F7DF91CF91089559
:10226000BC0143E050E084E00E94DF100895A0E04C
:10227000B0E0EDE3F1E10C946D35F82EE92EB62EC9
:10228000A72E8A018091E401CC24C394D12C8A30FA
:1022900018F48AE0C82ED12CC1E0D0E06B2D7A2D45
:1022A0008F2D9E2DF8010995811116C02196CC160F
:1022B000DD0694F0CC9FC001CD9F900D900D1124B0
:1022C00020E030E045E34A95F1F700002F5F3F4FF3
:1022D00028173907B9F7E2CFCDB7DEB7EAE00C949B
:1022E00089359091B50592FB222720F9281779F0BE
:1022F00080FB92F99093B5056091B4057091B50596
:1023000084E090E00E947B3682E00E94F908089504
:102310001F93CF93DF93962F122F632F8430D8F41F
:102320009A30C8F44630B8F4C42FD0E0CC0FDD1F8B
:102330002CE0929FC00DD11D112498E7899FC00DFC
:10234000D11D1124CE0189960E945D36612FCE01E8
:102350008A960E945D36DF91CF911F9108950F9369
:102360001F93CF93DF93962F142F022F632F843068
:1023700010F5923000F528E0829FE001112424E05E
:10238000929FC0011124C80FD91FC75FDD4F81E0A4
:10239000842790E0880F991F8C0F9D1F0E945D3647
:1023A00081E090E0111102C083E090E0602F8C0F7B
:1023B0009D1F0E945D36DF91CF911F910F9108956F
:1023C0008F929F92BF92CF92DF92EF92FF920F93E4
:1023D0001F93CF93DF9303EC13E0E12CF12CC0E0CB
:1023E0004701D0E015C0F601259134914B2D6D2F9A
:1023F0008C2F0E94881122E0C20ED11CB39436E0CB
:10240000B312F1CF86E0880E911CDF5FDA3049F01D
:10241000C401880F991F9C012D513E4F6901B12CB9
:10242000E2CFF8012591349141E060E08C2F0E94C9
:10243000AF11F80132962591349140E060E08C2F85
:102440000E94AF11F80134962591349141E061E08A
:102450008C2F0E94AF11F80136962591349140E0FF
:1024600061E08C2F0E94AF11085F1F4FCF5F3CE3EC
:10247000E30EF11CC43009F0B3CFDF91CF911F916F
:102480000F91FF90EF90DF90CF90BF909F908F9033
:102490000895CF93DF93C9E2D2E060E0CE010E94BD
:1024A0005D362196C11584E0D807B9F7DF91CF9149
:1024B0000895CF93C82F64E2811101C06FEF85E2C8
:1024C00090E00E945D3661E0C11101C06FEF86E2CD
:1024D00090E00E945D3663E2C11101C06FEF87E2B8
:1024E00090E00E945D36CF91089580E00E945912DD
:1024F00060E088E290E00E945D360E94E0110E9458
:10250000491281E00E94591208950F931F93CF93AF
:10251000DF93843030F56A3020F5463010F5C42F53
:10252000D0E0CC0FDD1F2CE0629FC00DD11D112427
:1025300038E7839FC00DD11D1124CE0189960E94DA
:102540003936082F10E0102F0027CE018A960E94FE
:1025500039369801282BC901DF91CF911F910F9136
:10256000089580E090E0F8CFFF920F931F93CF93F0
:10257000DF93F42E843068F5623058F528E0829FAE
:10258000E001112434E0639FB0011124C60FD71F6E
:10259000C75FDD4F81E0842790E0880F991F8C0F83
:1025A0009D1F0E943936082F10E0102F002781E070
:1025B00090E0F11002C083E090E08C0F9D1F0E941C
:1025C00039369801282BC901CDB7DEB7E5E00C9468
:1025D0008E3580E090E0F8CF7A3048F4663070F4C1
:1025E000843060F4462F672F0E94851208957D3F46
:1025F00041F4623018F441E0843050F080E090E023
:1026000008957C3FD9F76230C8F78430B8F740E0CE
:102610000E94B4120895A0E0B0E0E1E1F3E10C946F
:1026200070357C010091B0058091AF05082BC3E0A7
:10263000D0E010E0C8010C2E02C0959587950A9451
:10264000E2F780FD09C02197A8F7D12C8D2DCDB7D9
:10265000DEB7E7E00C948C35DC2EB7018C2F0E949E
:10266000EC120E940C0A019771F3F0CF0F931F93A5
:10267000CF93FC01858100811181811591F0611555
:1026800081F0C8010E940B13C82F682FC8010E9457
:102690009B08B8018C2F0E94EC12CF911F910F91D3
:1026A0000895C8010E94B508C82FF3CFCF93DF93D8
:1026B000D82FC92F0E940B136D2F7C2F0E94EC1274
:1026C0000E940C0ADF91CF910895FC01848181154D
:1026D000A1F0808191810E945613282F92959F70BE
:1026E000963099F060F4925F9F70923030F4203F02
:1026F00089F038F481E0283E38F080E008959A5F50
:10270000F3CF81E0243FC9F7089581E0283E20F00F
:10271000213FF9CF81E00895089585E290E00E947D
:102720003936843289F486E290E00E94393681306D
:1027300059F487E290E00E94393691E0833209F043
:1027400090E0892F8170089580E0FCCF8091AC05E6
:102750009091B605892B4091AD05411589F090E027
:1027600024ED31E0F90150812F5F3F4F51119F5F00
:1027700051E02A3D3507B1F791111092AD05842B38
:102780008093D20148E050E06CE775E082ED91E083
:102790000E942336892BA9F088E0E2EDF1E0ACE756
:1027A000B5E001900D928A95E1F7E0917A05F091FC
:1027B0007B05309731F00280F381E02D82ED91E0CE
:1027C000099508951092AC05E4EDF1E086E0DF0193
:1027D0001D928A95E9F780E090E00E94790C80E0F4
:1027E00090E00E949F0C1092B6050E94A6130895D7
:1027F0000E94E2132FEF84E39CE021508040904040
:10280000E1F700C0000088E19AE00FB6F894A895BF
:10281000809360000FBE90936000FFCFAAE2B0E00B
:10282000E4E1F4E10C9474358BEE91E0FC01019647
:102830002091F100208321E0833F9207B9F7809136
:10284000EC01893009F456C0C8F4823009F4B3C0F1
:10285000833009F482C0813071F18091E80083FFF8
:10286000E8C08091EB019091EC019A3008F0E1C052
:10287000E92FF0E0ED56F94C0C94CA358A3009F492
:1028800089C08B3051F78091EB01813231F7809113
:10289000EF019091F001892B01F78091E800877F8B
:1028A0008093E8000E94860D8091ED0180930001E5
:1028B0000E94E213D2CF8091EB01813A71F68091B0
:1028C000E800877F8093E8008091EF019091F0010C
:1028D000892B61F060E080E090E070E00E942D0DB7
:1028E0008091E8008B778093E800B7CF68E083EFB2
:1028F00091E0F3CF8091EB01813209F0AECF80916E
:10290000EF019091F0018D7F892B09F0A6CF809186
:10291000E800877F8093E8008091E80082FF18C07C
:102920009091F3008091F200029731F48091F100D0
:10293000813011F0863021F48091F1008093FB0109
:102940008091E8008B778093E8000E94860D85CF08
:1029500080913D058111E0CF80CF8091EB01813ADC
:1029600009F07BCF8091EF019091F001892B09F064
:1029700074CF8091E800877F8093E8008091E80021
:1029800080FFFCCF809100018093F1008091E800EE
:102990008E77D9CF8091EB01813209F05ECF8091A3
:1029A000E800877F8093E8000E94860D8091EE0109
:1029B0008093E70152CF8091EB01813A09F04DCF2E
:1029C0008091E800877F8093E8008091E80080FF95
:1029D000FCCF8091E701D8CF803889F0823849F563
:1029E0008091EF018F70873020F58093E90080910E
:1029F000EB0085FB882780F91092E90007C09091D1
:102A00001705919592708091E801892B9091E800CB
:102A1000977F9093E8008093F1001092F1008091ED
:102A2000E8008E7723C0811116C08091ED018130BE
:102A300011F18091E80083FF0AC08091E800877F50
:102A40008093E8008091EB0080628093EB00AA966F
:102A5000E3E00C949035823061F78091ED018115AF
:102A600089F01092E9008091E800877F8093E80068
:102A70000E94860DDECF81E0933009F080E08093E4
:102A80001705EFCF8091EF018F702FEF280F2630C1
:102A900080F68093E9002091EB0020FFE2CF933095
:102AA00031F48091EB0080628093EB00DACF90915B
:102AB000EB0090619093EB0021E030E0A90102C0AF
:102AC000440F551F8A95E2F74093EA001092EA00FE
:102AD0008091EB008860E8CF8111ABCF1091ED01C0
:102AE0001F778091E3008078812B8093E3008091B1
:102AF000E800877F8093E8000E94860D8091E800BF
:102B000080FFFCCF8091E30080688093E30083E046
:102B1000111101C082E080933D058BCF8058823037
:102B200008F087CF4091ED015091EE014C3D83E0DC
:102B3000580799F583E08A838AE289834FB7F8942E
:102B4000DE01139620E03EE051E2E32FF0E05093E7
:102B50005700849120FF03C082958F703F5F8F7074
:102B60008A30C8F0895C90E08D939D932F5F24316B
:102B700061F74FBF8091E800877F8093E8006AE2A9
:102B800070E0CE0101960E942D0D8091E8008B77B8
:102B90008093E8004ECF805DE6CF8091EF01909169
:102BA000F001252F33272330310509F44AC078F589
:102BB0002130310509F479C08BE590E0E8E4F1E0DB
:102BC0002230310509F035CF2091E800277F20938E
:102BD000E8002091F1013091F2018217930708F487
:102BE0009C0140E02115310509F064C0411162C02B
:102BF0008091E80082FDC9CF80913D05811529F2C1
:102C0000853019F28091E80083FFF2CFBECF2132E8
:102C1000310509F43BC02232310509F00ACF833077
:102C2000910508F006CFFC01EE0FFF1FE05BFE4FA1
:102C30000190F081E02D835B9E4FDC018C9190E050
:102C400011C0CA019927413089F082309105B1F055
:102C5000892B09F0EECEEFEDF1E0E4918E2F90E0BC
:102C6000EFEDF1E0009709F4E4CEAECFE3ECF1E054
:102C7000E4918E2F90E0E3ECF1E0F4CFE5EBF1E0AE
:102C8000E4918E2F90E0E5EBF1E0ECCF83309105FD
:102C900008F0CFCEFC01EE0FFF1FEA5AFE4F019065
:102CA000F081E02D89E090E08FCF82E190E0E3EACF
:102CB000F1E08ACF80913D05811509F466CF85301A
:102CC00009F463CF8091E80083FD5FCF8091E80035
:102CD00082FD8ECF8091E80080FF84CF9091F30039
:102CE0008091F2002115310519F08830910550F0DE
:102CF00041E0089709F040E08091E8008E778093EA
:102D0000E80070CF44914093F10031962150310991
:102D10000196E8CF803809F08CCE8091E800877F5B
:102D20008093E8008091E9018093F10078CE8111D1
:102D300080CE1091ED01123008F07BCE8091E8003A
:102D4000877F8093E8001093E9010E94860D11159A
:102D5000D1F084E080933D0542E061EC81E00E9487
:102D6000F40D42E261EC84E00E94F40D42E261EC79
:102D700082E00E94F40D42E260EC83E00E94F40DD8
:102D800080913D0556CE8091E30087FDE2CF81E042
:102D9000E1CFCF93C82F8115A1F08CEF8C0F813A32
:102DA00090F4E4EDF1E08191C817B9F121E0EA3D3A
:102DB000F207C9F76C2F82ED91E00E94C50C0E94CA
:102DC000A613CF91089580E28C0F883068F4C77005
:102DD00021E030E001C0220FCA95EAF78091AC05EE
:102DE000822B8093AC05EBCF8BE58C0F833038F4CE
:102DF0002C2F2452330BC9010E94790CE2CFC85A00
:102E0000CB31F8F6EC2FF0E0EE0FFF1FE656FE4F49
:102E1000808191810E949F0CD4CF6C2F82ED91E034
:102E20000E94DF0C0E94A613C5CF682F811541F1C7
:102E30008CEF860F813A38F482ED91E00E94DF0C2E
:102E40000E94A613089580E2860F883048F46770C8
:102E500081E001C0880F6A95EAF70E941109F0CF5E
:102E60008BE5860F833028F480E090E00E94790C97
:102E70000895685A6B3120F480E090E00E949F0C26
:102E800008950F931F93CF93C82F00E510E0893367
:102E900011F00AE010E08C2F0E94C9168FE99FE024
:102EA0000197F1F700C0000001501040B9F78C2FD6
:102EB0000E941517CF911F910F910895811539F038
:102EC0009091AC05892B8093AC050E94A6130895C0
:102ED000811521F00E9411090E94A6130895A0E017
:102EE000B0E0E5E7F7E10C946F358901D42FC52FE9
:102EF0006B017C010E94DF0BA8016D2F7C2F88E005
:102F000090E00E946F3698014D2F5C2FB601C701EB
:102F100000E20E94F235622F84E290E00E945D366A
:102F2000CDB7DEB7E8E00C948B35E4EAF5E085E058
:102F3000808311828FEF828388E783831482A1EAE2
:102F4000B5E012968C911297836012968C937581DE
:102F500025E030E04FEF58E760E0868197810E94DE
:102F60006F1708958091A805833018F48F5F8093C0
:102F7000A8052091A4053091A5054091A605509182
:102F8000A7056091A8057091A9058091AA05909167
:102F9000AB050E946F1708958091A805811519F05F
:102FA00081508093A8052091A4053091A5054091FA
:102FB000A6055091A7056091A8057091A90580917B
:102FC000AA059091AB050E946F170895A3E0B0E0A9
:102FD000ECEEF7E10C947135082FF62E142FE22E4B
:102FE0008091A40580FF4EC03091A505301308C024
:102FF0009091A605961304C09091A705941729F007
:103000009091A30592609093A305E82FE695E6952D
:10301000F0E0EC59FE4F90819093A1058C7F8430B5
:1030200091F4412F193708F048E79E012F5F3F4F79
:103030006F2D802F0E944E0B4B8169818A810E94E7
:103040008410302F09C0923019F41091A705F9CFE0
:10305000963011F09930A9F73093A505F092A605A6
:103060001093A705E11471F02091A4056091A805C3
:103070007091A9054F2D512F8091AA059091AB0514
:103080000E946F172396E6E00C948D35E4EAF5E094
:10309000818121E043816281865F0E94E617089565
:1030A000E4EAF5E0818121E0438162818A500E9457
:1030B000E6170895E4EAF5E0628121E1620F08F481
:1030C0006FEF21E0438181810E94E6170895E4EAD1
:1030D000F5E0628121E1621B08F460E021E04381B8
:1030E00081810E94E6170895E4EAF5E0438121E139
:1030F000420F08F44FEF21E0628181810E94E617C0
:103100000895E4EAF5E0438121E1421B08F440E040
:1031100021E0628181810E94E6170895A8E0B0E075
:10312000E4E9F8E10C94753566EE7EEF80E090E01E
:103130000E947B3660E082E090E00E945D3681E094
:103140008093AF0561E083E090E00E945D3660E02F
:1031500074E184E090E00E947B3660E086E090E0DD
:103160000E945D366FEF87E090E00E945D3640E0A0
:1031700050E0BA0188E090E00E946F3660E084E29F
:1031800090E00E945D3660E087E190E00E945D364D
:1031900060E08CE090E00E945D3660E08DE090E0C1
:1031A0000E945D3619821A821B821C821D821E8239
:1031B0001F82188648E050E068E170E0CE01019679
:1031C0000E944D3640E050E0BA0180E290E00E945B
:1031D0006F3680E00E9459120E94751240E050E064
:1031E000BA018FE090E00E946F3640E050E0BA01F3
:1031F00083E190E00E946F362896E2E00C949135CE
:10320000A1E0B0E0E6E0F9E10C946735462E4A0112
:10321000522EC32E3701A82E880FBB08C5010E946D
:10322000DD34D82E811509F475C0C50133E0880F4F
:10323000991F3A95E1F7FC01E35EFE4F2381422F8F
:1032400050E0211511F041E050E0835E9E4FFC01FB
:1032500064817581655A7A4FCE0101960E9430369D
:10326000F40140815181628173812FB7F89480917C
:10327000570590915805A0915905B0915A052FBF57
:10328000841B950BA60BB70B84369105A105B105E0
:1032900038F4B301C8010E94500C99818917D1F10B
:1032A000E42C042C000CFF08C7010E94DD34D82E4A
:1032B000811106C0D12C8D2D2196E0E10C9483352F
:1032C000C70123E0880F991F2A95E1F7FC01E35E0F
:1032D000FE4F2381422F50E06216710408F4A301CF
:1032E000835E9E4FFC0164817581655A7A4F852DFE
:1032F0009C2D0E943036B301C8010E94500C998168
:103300008913D8CF0E94EE0CF4016083718382830D
:103310009383D1CFA301B801852D9C2D0E94303617
:10332000CACFA5E0B0E0E7E9F9E10C946F356B0195
:1033300085E0E82EF12C0CE515E09E012F5F3F4F54
:1033400043E555E061E080E00E940019811549F0F5
:1033500095E0FE013196AEE4B5E001900D929A95AC
:10336000E1F795E0EEE4F5E0D60101900D929A9533
:10337000E1F72596E8E00C948B35A4E0B0E0E3ECAF
:10338000F9E10C94743540914205509143056091E8
:103390004405709145052FB7F89480915705909199
:1033A0005805A0915905B0915A052FBF841B950B64
:1033B000A60BB70B11E084369105A105B10578F194
:1033C0000E94FA0CDC01CB010296A11DB11D89837C
:1033D0009A83AB83BC8380913E0190913F01855AD3
:1033E0009A4F20913D01422F50E0253010F044E0EB
:1033F00050E0BE016F5F7F4F0E94303684E090E066
:103400000E94DD34182F811551F00E94EE0C60935C
:103410004205709343058093440590934505812FA1
:103420002496E3E00C949035CF92DF92EF92FF92D6
:10343000CF93DF93CDB7DEB72B970FB6F894DEBFEF
:103440000FBECDBF88E0E4EAF5E09E012F5F3F4F5D
:10345000D90101900D928A95E1F74091A1059091D3
:10346000A2058091A30549879A878B87C0903E0566
:10347000D0903F05E0904005F09041059FB7F8944B
:1034800040915705509158056091590570915A0522
:103490009FBF4C195D096E097F09E22F4436510523
:1034A0006105710510F4811511F18091460190912B
:1034B0004701855A9A4F20914501422F50E02C3008
:1034C00010F04BE050E06E2F732F0E94303685E0F5
:1034D00090E00E94DD34811569F00E94EE0C60934B
:1034E0003E0570933F0580934005909341051092EF
:1034F000A30581E02B960FB6F894DEBF0FBECDBFBB
:10350000DF91CF91FF90EF90DF90CF900895A0E0F2
:10351000B0E0EDE8FAE10C946F357C016B0164E6F4
:1035200070E088E70E949F32EC0197FD12C000E036
:1035300010E0F701E00FF11F849164E670E00E9453
:103540000E33EC010F5F1F4FC016D10611F097FF2D
:10355000F0CF0E94903381E0CD2B09F080E0CDB711
:10356000DEB7E8E00C948B3580910E05811569F08B
:1035700080910D05811549F062E070E086E491E0EC
:103580000E94871A811110920D05089580910E05F1
:103590008115F9F00E94EE0CDC01CB01805A9541B7
:1035A000AF4FBF4F80930F0590931005A093110567
:1035B000B093120580910D0581110BC062E070E09F
:1035C00084E491E00E94871A811519F081E08093CC
:1035D0000D0508951F93CF93DF93982F162F81E049
:1035E0009A3019F09D3039F480E00E947B1BDF9106
:1035F000CF911F910895C0910A03D0910B0386E0EB
:10360000FE01A2E2B2E001900D928A95E1F7903EB0
:1036100090F186E0FE0111928A95E9F7C0910A03C4
:10362000D0910B03111133C046E050E0BE0182E29D
:1036300092E00E9423369E012C503340892B91F555
:103640002A5F3F4F40911305642F70E0C9010E942B
:103650005135481B463010F4240F311D211572E0FE
:10366000370710F020E030E0245F3C4F30930B032D
:1036700020930A03BCCFF6E09F9FB00111246C5C3D
:10368000784F46E050E0CE010E940D36C7CF9E0134
:103690002A5F3F4FFE012E173F0731F28081809550
:1036A0008193F9CFC90145E0969587954A95E1F751
:1036B00041E050E0BA0102C0660F771F8A95E2F739
:1036C000CB016091080370910903862B972BB901F8
:1036D0006B5F7F4FE5E076956795EA95E1F702C06D
:1036E000440F551F6A95E2F7842B952B909309039D
:1036F00080930803A5CFCF93382FE0910A03F09170
:103700000B03EC50F34020911305622F70E0CF01C2
:103710000E945135281B822F311569F066E00E9406
:103720009C35C82FC15010F4CF91089560E080E21D
:103730000E94EA1AF7CF9F01280F311D2115324050
:1037400018F080E0E0E0F0E08E0F9F2F911D845F85
:103750009C4F90930B0380930A03E6CF1F93CF9364
:10376000DF93EC01162FFE018491811104C0DF91DB
:10377000CF911F910895612F0E94EA1A2196F3CFED
:103780001F921FB61F9211248F939F93AF93BF93E5
:1037900080911605811113C08091570590915805AD
:1037A000A0915905B0915A054196A11DB11D809374
:1037B000570590935805A0935905B0935A05BF91AA
:1037C000AF919F918F911F901FBE1F9018952FB79B
:1037D000F8948091570590915805A0915905B091A2
:1037E0005A052FBF089580917605811519F00E9422
:1037F000E71B08950E94FA0CCB0108956091A4057F
:103800006695669570E041E050E08AE091E00E94A4
:103810001636892B19F481E08093A2050E94F31BD0
:1038200090932705809326058091A305846080935B
:10383000A30508959091A40590FF42C0811509F455
:1038400040C0893108F03FC08F73282F220F220F0C
:103850008091A4058370282B2093A4058091A30553
:1038600081608093A305611581F03091A505409199
:10387000A6055091A7056091A8057091A9058091B2
:10388000AA059091AB050E946F176091A4056695FB
:10389000669570E041E050E08AE091E00E941636C3
:1038A000892B99F00E94F40B81E08093290520E098
:1038B0004091A7056091A6058091A5050E94E61795
:1038C000089581E0C2CF88E1C0CF0E94FE1BECCFFB
:1038D0008091A405869586958F5F893108F081E0F7
:1038E00061E00E941A1C08958091A4058695869532
:1038F0008A9509F488E161E00E941A1C089590916C
:10390000A40590FF09C096959695981728F09617EC
:1039100018F40E94681C089561E00E941A1C089522
:103920009C014FB7F8948091570590915805A0914C
:103930005905B0915A054FBF821B930B08952F92E2
:103940003F925F926F927F928F929F92AF92BF92BF
:10395000CF92DF92EF92FF920F931F93CF93DF935B
:1039600080910E05811509F46FC08091200290911D
:1039700021020E94901CC29708F446C00E94E71BD7
:1039800090932102809320028CE093E090930B03AC
:1039900080930A0380917605811509F483C0809194
:1039A000AF050E94070860E0811160C08FE297E0D8
:1039B0000E94AE1B81E00E947B1B8091B0050E949B
:1039C0000708823009F462C008F055C0811162C056
:1039D00060E083E297E00E94AE1B0E94680C81FBCE
:1039E000662760F986E097E00E94AE1B81E00E94A6
:1039F0007B1B60E083E097E00E94AE1B60E271E019
:103A000083EE95E00E94020C8091080390910903D7
:103A1000892B09F04CC080910D058115A9F00E94F9
:103A2000EE0C00910F0510911005209111053091B9
:103A30001205601B710B820B930B6F3F7F4F8F4FF3
:103A40009F4710F40E94B41ADF91CF911F910F91FC
:103A5000FF90EF90DF90CF90BF90AF909F908F90AE
:103A60007F906F905F903F902F90089589E297E04C
:103A70000E94AE1BA2CF833089F060E08CE097E01B
:103A80000E94AE1B81E00E947B1BA7CF60E08DE10E
:103A900097E0A1CF60E087E197E09DCF60E082E111
:103AA00097E099CF60E072E083EE93E0ABCF809136
:103AB0000E05811509F4AFCF80910C058111ABCFB4
:103AC0000E94C61A2091080330910903211531057F
:103AD00009F4A1CF80E041E050E0082F10E01A0186
:103AE000082E02C0220C331C0A94E2F7B1016223B3
:103AF0007323672B11F48F5FF0CF9091140590FF23
:103B000095C0880F880F880F37E0380F20E093E0CA
:103B100080930301209306013093040190930701E1
:103B200024E630E047E050E061E071E088E70E9481
:103B30003E33892B09F06FCFA80125E0440F551FB4
:103B40002A95E1F78091140580FF7CC0E0E0F2E067
:103B500080E2DF011D928A95E9F7A0E6B1E00CE56D
:103B600011E084E6C82E81E0D82E97E0592E772404
:103B700073948D91E80129918E01240F352F311D09
:103B8000245F3C4FE82FF0E0E050FE4F80E090E0F3
:103B9000652C681A872C082E01C0880C0A94EAF755
:103BA0007901A12CE701B9907E01B820662D6A1930
:103BB000677070E0DB2D062E01C0DD0F0A94EAF776
:103BC0009D2E7195619571096770772701C0B69434
:103BD0006A95EAF79B286081962A9082A39468E010
:103BE000A612E0CF019631968830910589F6CA1663
:103BF000DB0609F0BECF04E610E020E230E040E052
:103C000052E060E488E70E946533892B09F003CF16
:103C1000E101C095D09580910803909109038C2310
:103C20009D239093090380930803F5CE9801369560
:103C3000279536952795922F8295880F80763FE1BC
:103C4000380F66CF445F5C4F04E610E020E230E0BE
:103C5000D8CFFF920F931F93CF93DF93C62FD42F0C
:103C6000122F8115A9F060939F050E94E71B909386
:103C7000E6018093E501C77081E001C0880FCA9515
:103C8000EAF70E945E17CDB7DEB7E5E00C948E35FB
:103C900080919F05681330C08091E5019091E60105
:103CA0000E94901C8436910538F500E20D0FCD1767
:103CB000A9F0C770FF24F3948F2D01C0880FCA9517
:103CC000EAF70E946817083048F48D2F877001C00A
:103CD000FF0C8A95EAF78F2D0E945E17812F0E94B4
:103CE0004117083080F6D77081E001C0880FDA955F
:103CF000EAF70E946817C7CFC77081E001C0880F3C
:103D0000CA95EAF7F6CFA8E0B0E0E9E8FEE10C9446
:103D100065357C01FC018481811509F4ACC061E04A
:103D2000C7010E9436138C01F701D580D11409F424
:103D30003EC197578038910508F039C1003108F02D
:103D40008AC08FEF93E00E943936811184C059E216
:103D5000A52E52E0B52E011153C0CE0101964C01A3
:103D600088E0F40111928A95E9F74AE0342E850142
:103D70000F5F1F4FC5010E94393689831A82811552
:103D800009F469C0813009F07AC06501F2E0CF0E14
:103D9000D11CC8010E9439368A83811509F45BC0A1
:103DA0009FEF980F9330D0F523E0A20EB11CC6010F
:103DB0000E9439368B83811509F44DC01C82840121
:103DC000F8012081211599F2213009F099C08181F3
:103DD000813009F056C06801F2E0CF0ED11CF80125
:103DE00082810E94411786010F5F1F4F8AE0EFE931
:103DF000FFE03197F1F700C000008A95C1F7E0CFEE
:103E0000A114F4E0BF0639F1C5010E9439368111D1
:103E100001C001502FEFA21AB20A9DCF8430A1F445
:103E200002E010E0C6013FEFC31AD30A0E94393600
:103E3000F401E00FF11F8083811569F08C3731F4B4
:103E4000FE01E00FF11F12825601B9CF0F5F1F4F25
:103E50000730110539F78091B2058770811559F047
:103E6000F7018581811539F08091B50582FF03C086
:103E700082E00E94F9082896E2E10C94813558010D
:103E80009ECF823049F46801F2E0CF0ED11CF801D8
:103E900082810E94C916A7CF833049F46801F2E0FD
:103EA000CF0ED11CF80182810E9415179CCF84305F
:103EB00019F00F5F1F4F98CF22810E5F1F4F80E0D8
:103EC00090E0A8014F5F5F4F2053330B2A3031053C
:103ED00058F0009709F488CFEFE9FFE03197F1F748
:103EE00000C000000197F5CF389EB001399E700DDB
:103EF0001124C901860F971FF80121818A01E1CFA2
:103F0000E22FF0E0EA52F14F2490822F86958695B9
:103F1000869590E0FC01EA53F14FE4912770F0E0C0
:103F2000022E02C0F595E7950A94E2F7E170FF27AB
:103F30002F01FC01EA54F14FE491F0E0022E02C09F
:103F4000F595E7950A94E2F7E170FF273F01FC0140
:103F5000EA55F14FC490D12C02C0D594C7942A954C
:103F6000E2F781E0C822DD244114510419F081EE0A
:103F70000E94C9166114710419F086EE0E94C916D8
:103F8000822D0E9441176114710419F086EE0E947F
:103F900015174114510419F081EE0E941517C11430
:103FA000D10409F421CF8CE20E9441171DCF0134C6
:103FB000FEE71F0709F477C008F03FC00C37110572
:103FC00009F4B9C040F50A37110509F4DFC00B3711
:103FD000110509F4CEC0F7019581911509F4BDC111
:103FE00010929F05980130572332310508F0B5C172
:103FF00084E090E00E9447369093B5058093B40525
:10400000F801E150F047E232F10508F0EAC0E3566A
:10401000F94C0C94CA350D37110509F49DC00034D4
:104020003EE71307A1F1F801E851FC47E730F1053D
:1040300090F6E154F94C0C94CA3504348EE7180715
:1040400009F468C0A8F48091B5050234EEE71E07B4
:1040500009F055C08170D11409F446C0811509F4E6
:1040600041C084E00E94BD090E945E178FE428C011
:104070000534FEE71F0709F0AECF81E00E94BD09BD
:10408000D11409F454C00E945E178AE219C0D114F9
:1040900009F4E1CE61E083E090E00E945D3681E0CA
:1040A0000E941B08D8CE8091B5058170D11469F0AB
:1040B000811549F084E00E94BD090E945E1780E5E9
:1040C0000E94C91688CF81E0F6CF811549F084E0BF
:1040D0000E94BD090E94681780E50E9415177BCFDA
:1040E00081E0F6CF81E0BECF811539F084E00E94F7
:1040F000BD090E9468178FE4F0CF81E0F8CF81708E
:10410000D11421F08111DFCF8AE4DACF8111E8CF19
:104110008AE4E3CF8091B5058170D11421F081113B
:10412000E1CF8DE4CDCF8111E8CF8DE4D6CF0E94D1
:1041300068178AE2D2CF81E00E94BD09D11431F024
:104140000E945E1786E00E94C91685CE0E946817FD
:1041500086E00E9415177FCE81E00E94BD09D11430
:1041600021F00E945E1789E1EECF0E94681789E175
:10417000F0CF81E00E94BD09D11421F00E945E17AA
:104180008BE1E1CF0E9468178BE1E3CF81E00E94D1
:10419000BD09D11421F00E945E178DE1D4CF0E9499
:1041A00068178DE1D6CF26E241EE61EE8D2D0E949B
:1041B000291E51CE27E245EE65EEF8CF26E241EE0C
:1041C00060EEF4CF27E245EE64EEF0CF26E241EE5A
:1041D00062EEECCF27E245EE66EEE8CF28E241E062
:1041E000EBCF8091B40581608093B4056091B405F4
:1041F0007091B50584E090E00E947B360E94E21346
:104200002ACE8091B50588608093B505EFCF809167
:10421000B4058260E9CF8091B4058460E5CF8091D8
:10422000B4058860E1CF8091B5058160EDCF8091C4
:10423000B5058260E9CF8091B4058061D5CF8091CA
:10424000B4058062D1CF8091B4058064CDCF0E9447
:10425000E2138091B4058068C7CF8091B4058C606B
:10426000C3CF8091B5058360CFCF8091B4058E7F99
:10427000BBCF8091B505877FC7CF8091B4058D7F77
:10428000B3CF8091B4058B7FAFCF8091B405877F8A
:10429000ABCF8091B5058E7FB7CF8091B5058D7F6F
:1042A000B3CF8091B4058F7E9FCF8091B4058F7D71
:1042B0009BCF8091B4058F7B97CF0E94E2138091B2
:1042C000B4058F7791CF8091B405837F8DCF809196
:1042D000B5058C7F99CF8091B40582FB992790F921
:1042E00021E0922790FB82F990FB83F97DCF8091AA
:1042F000B505982F909590FB80F990FB81F984CFBC
:104300009091B405892F8F7B96FF80646DCF0E94BA
:10431000E2139091B405892F97FB87F9805864CFF9
:1043200061E08EE090E00E945D3660CF60E0F9CF02
:104330009091B405892F8F7E94FF806155CF909125
:10434000B405892F8E7F90FF81604ECF9091B50587
:10435000892F877F93FF886057CF0631FCE71F07BF
:1043600009F58091AC05911591F08A7A91E081115F
:1043700001C090E09093A00565E3811101C069E25E
:1043800082ED91E00E94C50C0E94A61364CD80913D
:10439000A00565E3811101C069E282ED91E00E9410
:1043A000DF0CF2CF9111B9C38091AC058272F80194
:1043B000E052F847E531F10508F077C0EA53F94CCF
:1043C0000C94CA358091A40580FF1EC0282F2E7F33
:1043D0002093A4053091A5054091A6055091A7050D
:1043E0006091A8057091A9058091AA059091AB05EF
:1043F0000E946F170E94F40B8091A3058160809347
:10440000A3050E949E0E27CD81608093A40561E0E4
:10441000869586950E941A1C1ECD44E75CE168E6ED
:104420007CE10E94FB0B17CD48E65CE164E77CE190
:10443000F8CF40E558E166E478E1F3CF46E458E18F
:1044400060E578E1EECF47E658E16AE578E1E9CF4B
:104450004AE558E167E678E1E4CF41E858E164E7EE
:1044600078E1DFCF44E758E161E878E1DACF4CEC5E
:1044700057E162EB77E1D5CF42EB57E16CEC77E1A6
:10448000D0CF61E081E0C6CF65E082E00E947F1C72
:10449000E2CC68E086E0FACF6EE089E0F7CF64E135
:1044A0008FE0F4CF67E185E1F1CF07372CE7120702
:1044B00009F46CC008373CE7130709F46BC0911589
:1044C000A9F00A358CE7180709F48FC008F066C018
:1044D0000130ECE71E0709F486C00330FCE71F0734
:1044E00009F47BC001151C4709F46AC0F7018581F6
:1044F000C080D180811509F47CC0C6010E940B13D5
:10450000182F682FC6010E949B08B601812F0E94B8
:10451000EC120E940C0A182F092FF701A680A29412
:104520003FE0A322D5808091B2058770811501F10B
:10453000D114F1F0892F807F803469F090E2910FDF
:104540009830B0F0902F907E903209F057C0123022
:1045500078F0A11469F08091B50582FF09C082E06E
:104560000E94F9088091B2058770BB24B394811131
:10457000B12C802E82942FE08222003C08F0E6C00D
:10458000912CF401E552F94C0C94CA3581E00E945B
:104590003408CBC282E09115D1F3C5C20B353CE79C
:1045A000130729F10C351C4709F0A0CF8091B50500
:1045B00082FB882780F991E089270E94711196CFAC
:1045C0000E94E2139FEFE4E3FCE09150E040F040F2
:1045D000E1F700C000000E94170D6FEF7FEF80E051
:1045E00090E00E947B360E94F81381E0E6CF80E0E5
:1045F000E4CFC6010E94B508182F87CF803609F096
:10460000AACF163FA7CFF02FFF70CF2E003118F0A2
:10461000C29490EFC922D114B9F0C11469F080E2BC
:10462000810F883010F0111109C08091AC058C29E0
:104630008093AC050E94A613812F69C08091B605B6
:104640008C298093B605F6CF812F0E941517C110D3
:104650000BC028E0821A910834E08316910408F018
:1046600075C00E94680C72C080E2810F883010F023
:10467000111104C08C2D0E94110906C0C0948091B4
:10468000B6058C218093B6050E94A613B114A9F03B
:104690008091B20580FD11C0F7011582869586953F
:1046A00086950E942808C7010E94831E8091B2054A
:1046B0008695869586950E94340860E0C7010E9421
:1046C0003613D9CB802F8F70C82E802F807F8032F9
:1046D00019F0C29480EFC822111549F0113009F485
:1046E00061C0D11409F46DC0A114F9F0A5CF809177
:1046F000B50582FD16C0D11469F0C11439F080915E
:10470000AC058C298093AC050E94A61380E00E9422
:10471000C9161CC080E00E941517C11409F499CF76
:10472000A9CFD11419F1A11004C08C2D0E945E17DD
:104730000DC091E0A9128DCF8091AD059C2D9823DD
:10474000C91609F486CF8C298093AD05D11409F4DC
:104750009DCF007F003619F4163F09F497CF809162
:10476000B105823009F0D5C183E090C1A11071CFAD
:104770008C2D0E9468179091AD058C2D8923811591
:1047800029F08C2D809589238093AD058091AE050D
:104790009C2D9823911509F45CCFC094C822C09237
:1047A000AE0574CFD11429F0E6E0AE1608F051CF73
:1047B000BCCFF5E0AF1608F04CCF8C2D0E946817E7
:1047C00065CFA114D1F3193369F42FEF37EE83E0ED
:1047D000215030408040E1F700C00000812F0E944E
:1047E000151754CFEFE3FCE93197F1F7F5CF802FA0
:1047F000869586958370811569F0813009F0A6CF82
:10480000812F902F9370D11002C080E090E00E9421
:104810009F0C9CCF812F902F9370D11002C080E00D
:1048200090E00E94790C92CF802F8370811133C069
:10483000D1100FCF412F429546954770440F440F3A
:10484000812F8F70042E01C0880F0A94EAF7212F60
:104850002071211539F02FE030E001C0220F4A9578
:10486000EAF72095302F369536953370323071F057
:10487000333051F04091AF05313029F0822B842341
:104880000E941B08EECE842B822BFACF822B9091B4
:10489000AF058927F5CFD11459F100FFDACE412FAA
:1048A000429546954770440F440F812F8F70042E18
:1048B00001C0880F0A94EAF7212F2071211539F0E1
:1048C0002FE030E001C0220F4A95EAF72095302F03
:1048D000369536953370323091F0333071F0409127
:1048E000B005313049F0822B84230E941E08B9CED6
:1048F000823008F4AECED3CF842B822BF6CF822B1E
:104900009091B0058927F1CFF02FFF70CF2ED114F1
:1049100039F08F2F0E942808812F0E945E17A1CEA8
:10492000812F0E9468178C2D0E9434089ACE123F66
:1049300071F170F4103FC9F0113F91F0D11409F4F6
:104940005BC0A11409F455C0812F0E94C91689CEFD
:10495000133F21F1143F91F78091B50582FD2AC0E4
:10496000802F8F71D11401F316C0D11469F025E0A6
:10497000A21608F06ECE202F2F7181E090E001C0CA
:10498000880F2A95EAF7BCCF36E0A316F2CF802F26
:104990008F71D110C9CF0E94280863CE80E0D11456
:1049A00009F4A3CF81E0902F9F7101C0880F9A95E1
:1049B000EAF79BCFD11491F0802F8F71C82E0E94FF
:1049C00028088091B50582FF07C08C2D880F880FBD
:1049D000880F83608093B2058C2DDDCF81E00E942B
:1049E000F90892E0A91608F434CE82E00E94F90892
:1049F00038CE802F8F71CFCFA114A1F0193369F475
:104A0000EFEFF7EE23E0E150F0402040E1F700C087
:104A10000000812F0E94151724CE8FE39CE9019797
:104A2000F1F7F5CF802F8F717FCFE0E1E10FE73015
:104A300008F042C0F0E0E951F94C0C94CA35D114A9
:104A400009F407CE8091B70591E089278093B705D7
:104A50007DCED092B7057ACE81E08D25F7CFD110EB
:104A6000F8CD81E08093B70511CED110F2CD109230
:104A7000B7050CCED11429F082E08093B10581E016
:104A8000E5CF8091B105823021F481E08093B105BA
:104A9000FDCD833009F0DDCD1092B105E8CFD11402
:104AA00039F08091B305811569F21092B3054ECEAD
:104AB00095E0A91638F2CDCD8091B305A114D9F0B7
:104AC000811541F08091B70591E089278093B70562
:104AD0001092B305D110B0CDEFE3FCE93197F1F7B7
:104AE00000C00000812F0E94151787E0F701119286
:104AF0008A95E9F7CBCD811509F4ABCDD110A9CDBD
:104B00008091B70591E089278093B7051092B3058E
:104B1000BDCD813009F0BACDBFCF0737FCE71F0705
:104B200009F0C8CC81E00E94280843E062E081E0FF
:104B30000E94CE0890C980910106803178F480915E
:104B40000006811559F0E091C2052091C105309110
:104B5000FC054091FB0557E02E1301C008956E2F10
:104B600070E05E9FF0011124DF01AD53BA4F14963F
:104B70008C911497811561F111968C911197831383
:104B800027C08C91841324C015968C9115978111A0
:104B90001FC012968D919C91A091FD05B091FE05CC
:104BA0008A1B9B0B8436910598F4809101068F70C7
:104BB000806180930106E753FA4F80818F70806196
:104BC00080838BEF95E00E94831E0E94EF0808957A
:104BD000FB013196E770C0CFADE0B0E0E2EFF5E267
:104BE0000C9469358C0186E0F801DE01189601907D
:104BF0000D928A95E1F7F8017080F580A280B3806C
:104C0000E4808BEF882E85E0982E6090FF05611080
:104C10002DC0E11441F1F11409F447C1C8010E940B
:104C20006513811509F441C187E0F801D4010190B1
:104C30000D928A95E1F7F1E0EF1213C08091FB0528
:104C40009091FC050E94561392959F70963049F4FE
:104C5000863F39F08091B7058E258093B705E092A5
:104C6000B3050E949B25FF24F39453C0D090000607
:104C70008091FD059091FE059501281B390BD114FB
:104C800009F4E4C02436310508F09FC0E11459F35B
:104C90008091FC05C180E0900106F0E1EF1608F07C
:104CA00059C0C81215C08091FB05871111C0F110C1
:104CB0004BC08E2D8F708061809301068BEF95E045
:104CC0000E94831E80910106F8018683F12C21C089
:104CD000F1103AC040E06C2D872D0E947F0E40E01D
:104CE0006C2D872D0E947F0EF82E8111EFCF8885C5
:104CF00099850E945613292F22952F70903470F4B5
:104D00009F702230A0F09115B1F0F801968190319A
:104D100090F48F2D2D96EEE00C9485352A5F2F7040
:104D2000223068F0C8010E94831EFD2CF2CF91153D
:104D300011F0811571F3805E883058F3F3CF803F16
:104D400040F3815F8330F9CF8091010681608093C9
:104D50000106BCCFC81214C08091FB05871110C09A
:104D6000F1100EC0F801E682C8010E94831E87E0A0
:104D7000F801ABEFB5E001900D928A95E1F773CFA2
:104D8000C8010E946513811509F48FC0F11409F45C
:104D90008CC080910106803278F08091FB05909163
:104DA000FC059A838983BC82AB826D821E82EF826E
:104DB000CE0101960E94831E87E0F801ABEFB5E0BB
:104DC00001900D928A95E1F74CCFD0900106F0E169
:104DD000DF1650F48BEF95E00E94831E87E0F4010C
:104DE00011928A95E9F772CFE11409F43CCF9091C2
:104DF000FC05F8018181981310C08091FB05871193
:104E00000CC0F1100AC0D682C8010E94831E87E040
:104E1000F40111928A95E9F726CFC8010E94651323
:104E2000811509F442C0F11409F43FC080910106D4
:104E3000803210F28091FB059091FC059A83898362
:104E4000BC82AB826D821E82DF82B2CF24363105F6
:104E500028F6E11409F407CFF11439F19091FC051B
:104E60008181981318C08091FB05871114C080912F
:104E7000010680FD7CCF803108F479CF8683807F66
:104E8000803F09F471CF8681982F907F905F8F705B
:104E9000892B868369CFC8010E94651381118CCF4D
:104EA00080910106816080930106C8010E94831EE3
:104EB000DACEABE1B0E0EFE5F7E20C947435688F41
:104EC000798F282F8A8F692F9B8F91111092B605A9
:104ED0008115B9F1813009F076C05A3090F546302D
:104EE00080F5E42FF0E086E0589FE00DF11D1124DD
:104EF000CF018770992721E030E001C0220F8A9509
:104F0000EAF7DF0173E0B695A7957A95E1F7A75424
:104F1000BA4F7C918091B705611102C0872F82231F
:104F2000811509F44CC0CF01880F991FFC01E75A85
:104F3000F04F5491FC01E85AF04FE4914E2F722B40
:104F40007C931D8A4E8B5F8B86E0FE017696DE0198
:104F50001F9601900D928A95E1F78B89811529F0B2
:104F600061E0CE010F960E94361387E0FE013F9666
:104F7000DE01189601900D928A95E1F7CE01089610
:104F80000E94EC25811110C087E0FE013896DE01F9
:104F9000119601900D928A95E1F72091C1054091FB
:104FA000C2058C8581113DC017E08091C2059091AA
:104FB000C10589135FC06B96E3E00C949035209592
:104FC00027232C93BECF2250223008F0BACF84E0A2
:104FD000850F823008F0B5CFE42FF0E0242F277042
:104FE00081E090E001C0880F2A95EAF7DF0193E0A5
:104FF000B695A7959A95E1F7A854BA4F2C913091A0
:10500000B705611102C0322F3823311531F0EA5A49
:10501000F04FE4914E2F282BD4CF809582238C9390
:1050200090CF30E0C901019687709927481719067B
:1050300071F40E94E2131092C1051092C20587E03C
:10504000EBEFF5E0DF011D928A95E9F7ADCF97E030
:10505000929FD001939FB00D1124AD53BA4FFE0122
:10506000319601900D929A95E1F78093C1050E94C7
:10507000EF089ACF189FC00111248D539A4F0E94B8
:10508000EC25811509F497CF8091C20590E0019637
:10509000877099278093C20588CFA6E0B0E0E3E54A
:1050A000F8E20C9473350E94E71B8C01809178051F
:1050B000909179058017910779F019821A820E94E0
:1050C000E71BBC0149815A8180E090E00E9459278A
:1050D00010937905009378052696E4E00C948F35BB
:1050E000ACE0B0E0E6E7F8E20C947235182FF62E4B
:1050F0008F836115A1F18DEF88870E94E71B02E085
:10510000BC0189879A870B8781E08C874F815885FE
:10511000802F91E00E9459278FE39CE90197F1F7D6
:1051200000C0000019838DEFF11001C08CEF8A835D
:105130000E94E71BBC018B839C830D831E824981E7
:105140005A81802F90E00E9459278FE39CE90197B4
:10515000F1F700C000002C96E5E00C948E358CEF42
:1051600088870E94E71B03E0CBCFA1E0B0E0EBEB28
:10517000F8E20C946E35EE24E394F12C02E615E08F
:105180009E012F5F3F4F4AE455E063E082E00E94BA
:105190000019082F811539F1D12C80E01DC0C09075
:1051A0004905CD0C2C2D30E0A901495B5A4F7A01FD
:1051B000E1E0F0E0EC0FFD1FED0DF11D1081FA01B3
:1051C0009081191BB12E1B149CF0912F17FD90E0BC
:1051D000191B111118C0D39490914605D916F8F2F5
:1051E00081110E94140D802F2196E9E00C948A35DC
:1051F000BA94F70180818F5F808360E08C2D0E94DC
:105200007028802FE0CF1F5FF7018081815080835D
:1052100061E08C2D0E947028802FDBCFA5E1B0E0EB
:10522000E4E1F9E20C946835FE013C968AE0DF0186
:105230001D928A95E9F78DE7E82E81E0F82E8F011F
:1052400092E8C92E91E0D92E3F01AA24A394B12C53
:1052500038E8832E31E0932EF70181917F018F3F53
:1052600009F441C0F894E82FE295EF70F0E021A135
:105270008F70A50102C0440F551F8A95E2F7CA013D
:10528000922F982B91A392A18095892382A3789441
:1052900000C0E2E8F1E031E0512C21912F3F89F08C
:1052A000A22FA295AF70A05EB0E08C9190E02F701D
:1052B00002C0959587952A95E2F78170811509F4CA
:1052C00088C080E0582A330F8E169F0631F7F70109
:1052D000319780818F3F11F00E94340B50EA5A952C
:1052E000F1F7D8015C920F5F1F4FCE14DF0409F075
:1052F000B3CF4AE050E0B3018CEF92E00E94233636
:105300009C01892B41F08AE0F301ACEFB2E00190FF
:105310000D928A95E1F7E0900703F12CF701ED5C1F
:10532000FA4F7F01232B09F456C081E08093E301FB
:105330000E94E71B9093E2018093E1018091760542
:105340008E010F5F1F4F811509F49AC085E0D801C7
:105350001D928A95E9F78091E4018A3008F05DC0DA
:1053600041E959E1B801C7010E943711811509F4DB
:1053700075C045EB58E2B801C7010E94371181158D
:1053800009F46CC04DEB59E1B801C7010E94371117
:10539000811509F463C044E15AE1B801C7010E94D4
:1053A0003711811509F45AC01092E4018091060367
:1053B00090E045E050E0B8018D5C9A4F0E942336A2
:1053C00021E02093E001892BE9F56596EFE00C944C
:1053D0008435832F77CF8091E301811509F4AECF17
:1053E0008091E1019091E2010E94901C059708F4E0
:1053F000A5CF45E050E06CEF72E0C7010E94233674
:10540000892B41F085E0ECEFF2E0D70101900D929D
:105410008A95E1F71092E30191CF8091DE0190919E
:10542000DF010E94901C843F914008F099CF809149
:10543000E001811551F285E0F80111928A95E9F7B2
:105440001092E001A0910603B0E0AD5CBA4F85E098
:10545000F80101900D928A95E1F7B7CF8091E401B0
:105460008F3F39F40E94E71B9093DF018093DE01A8
:10547000DECF8F5F8093E4018A3008F497CFF2CFBC
:1054800085E0F701ACE5B5E001900D928A95E1F772
:1054900065E070E08CE595E00E94500C80935B0520
:1054A00040912F0550E060912E0570E0695B7A4FC6
:1054B000C8010E94303689818093620561E070E006
:1054C000C8010E94500C80936105C0906305D09084
:1054D0006405E0906505F09066058091DA01909191
:1054E000DB01A091DC01B091DD01C816D906EA0606
:1054F000FB06B1F0C092DA01D092DB01E092DC0150
:10550000F092DD010E94EE0CC61AD70AE80AF90AE9
:10551000C0927205D0927305E0927405F092750501
:105520008BE0E7E6F5E0D80101900D928A95E1F76E
:105530008091670586958695F0906805E0906905ED
:10554000D0906A0500917005109171051092710557
:10555000111509F43ACF10FF0BC0998190FF1CC0C0
:105560009091A40591609093A40560E00E941A1C9C
:1055700011FF06C020E04D2D6E2D8F2D0E94E617E5
:1055800012FF04C0011559F00E94FE1B13FF1DCF2E
:1055900081E08093290519CF0E947510E9CF0E9400
:1055A000F40BF4CFCDB7DEB7A2970FB6F894DEBFF9
:1055B0000FBECDBF85B7806885BF85B7806885BFC2
:1055C00084B7877F84BF0FB6F894A8958091600058
:1055D000886180936000109260000FBE80E890E0C8
:1055E0000FB6F89480936100909361000FBE82E340
:1055F0009BE09093D1018093D0010E94D50D0E9431
:10560000240E8091E20084608093E200789480917F
:105610003D05811599F08091E9001091EC001795F6
:10562000112717958F70182B1092E9008091E800D0
:1056300083FD0E940E141F701093E90082E084BD68
:1056400093E095BD9AEF97BD80936E00109272051E
:105650001092730510927405109275050E948D13B7
:10566000811102C00E9475128091D80080618093E0
:10567000D8002AE12A95F1F700C01091D9001170E5
:10568000111104C00E94D50D10923D0510937605AE
:105690001093770510931001111509F4DEC01092D4
:1056A0000B0183E280930C010E94EE339091100174
:1056B00081E0292F282720932E059093490590916A
:1056C000100180932F0590911001809346058091E1
:1056D0001001811106C084EF80931C0185EF809337
:1056E0001B0180911C01E82FE295EF70A1E2AE0F43
:1056F000B0E04C918F7021E030E0B90102C0660F3C
:10570000771F8A95E2F7CB01962F909594239C936F
:10571000EE5DF0E09081892B808380911B01E82F62
:10572000E295EF70A1E2AE0FB0E04C918F70B9013D
:1057300002C0660F771F8A95E2F7CB01962F9095EE
:1057400094239C93EE5DF0E09081892B80838FE819
:1057500091E00197F1F700C0000010912F056CE176
:1057600071E04BE151E020E3E22E25E0F22EFB0157
:105770008E2F861B811708F476C0809110018091CE
:10578000100190E0811101C095E09093070385E03E
:10579000891B809306030DE711E092E8E92E91E062
:1057A000F92EF80181918F018F3F11F00E94340B87
:1057B000E016F106B1F702E811E088E8E82E81E092
:1057C000F82ED8018D918D018F3F11F00E94340B7E
:1057D000E016F106B1F78AE0E3E3F5E0DF01282FF8
:1057E0001D922A95E9F7ECEFF2E0DF011D928A9510
:1057F000E9F780E090E00E944736863E9E4F21F414
:105800000E948D13811102C00E948E1882E090E0E8
:105810000E9439368093180584E090E00E94473654
:105820009093B5058093B4050E940E29EFEFF6E73B
:1058300021E0E150F0402040E1F700C000000E946C
:105840000E298091330580FF36C06FEF7FEF80E037
:1058500090E00E947B360E94170D83E280930B013B
:1058600080930C0123CF0191802F82958F70805EF1
:1058700090E0DC012C91DA013D91AD01832F8295FE
:105880008F70805E90E0DC018C9190E03F7002C0F0
:10589000959587953A95E2F78170880F30E00F7003
:1058A00002C0359527950A95E2F72170822BD70122
:1058B0008D937D015DCF83E090E00E9439360E9498
:1058C0001B0880917605811509F463C193E080E29D
:1058D00090931405809313050E9499326BE070E059
:1058E0008BE89EE00E94871A811509F43FC08091E1
:1058F000140565E070E081FD4FC186E89EE00E94DE
:10590000871A811599F16DE070E084E79EE00E94AE
:10591000871A811559F10E94EE0CDC01CB01805AE7
:105920009541AF4FBF4F80930F0590931005A09303
:105930001105B0931205ECE0F3E080E092E0DF01A6
:105940009C011D9221503040E1F7F0930B03E0934E
:105950000A038FEF9FEF909309038093080381E080
:1059600080930E0580930D0510920C05809115050E
:10597000811197C080E090E00E944736863E9E4F9E
:1059800021F40E948D13811104C00E948E180E9480
:10599000951788E090E00E9441366B017C0184E21B
:1059A00090E00E943936282F30E040E050E060E07F
:1059B00070E080E090E000E20E94D735E22FA32E55
:1059C000B42EB52FA62FF72F9701860140E050E0A7
:1059D000BA01EC29A12AB22AB32BA42BF52B862BD2
:1059E000972BE093A405A092A505B092A605B093CD
:1059F000A705A093A805F093A9058093AA05909305
:105A0000AB058091A30583608093A305E430C8F5BE
:105A10000E94951788E090E00E9441366B017C015E
:105A200084E290E00E943936282F30E040E050E0D8
:105A300060E070E080E090E000E20E94D73559011C
:105A4000B42FA52FF62FE72F9701860140E050E0F5
:105A5000BA01AC28B12AB22BA32BF42BE52B862B51
:105A6000972BA092A405B092A505B093A605A0938C
:105A7000A705F093A805E093A9058093AA05909344
:105A8000AB050E94DF0B0E94F40B8091A40580FF00
:105A900005C060E0869586950E941A1C81E080937F
:105AA000150580917605811102C00E94F13381E1D4
:105AB00091E090937B0580937A05E8E16E2E712C3E
:105AC000FDE3EF2EF5E0FF2EA3E2CA2EA5E0DA2ECD
:105AD000B2E02B2E312C80913D05853049F4809128
